:100000000C943E000C945B000C945B000C945B0021
:100010000C945B000C945B000C94C3050C945B0087
:100020000C945B000C945B000C945B000C945B00E4
:100030000C945B000C945B000C945B000C945B00D4
:100040000C945B000C945B000C945B000C945B00C4
:100050000C945B000C945B000C945B000C945B00B4
:100060000C945B000C945B000C945B000C945B00A4
:100070000C945B000C945B000C945B0011241FBE7D
:10008000CFEFD8E0DEBFCDBF11E0A0E0B1E0E8E502
:10009000FCE002C005900D92AA30B107D9F721E02B
:1000A000AAE0B1E001C01D92AF30B207E1F70E94B3
:1000B00017060C942A060C940000AF92BF92CF92C0
:1000C000DF92FF920F931F93CF93DF9300D000D066
:1000D0001F92CDB7DEB78C010E944805C801049677
:1000E0000E944805580188E0A80EB11CC5010E9475
:1000F00087046801EDE0CE0ED11CC6010E94870482
:1001000081B1FF24FA94F1B88AB1FAB81BB861E062
:10011000CE0101960E946E0589819A81AB81BC81D6
:10012000F80180839183A283B383CE0101960E945C
:100130005C0560E0CE0101960E946E0589819A817E
:10014000AB81BC81F80184839583A683B783CE01FC
:1001500001960E945C0588E0F801838B82E0828B27
:1001600020E041E065E270E0CE0101960E94880443
:1001700095E0FE013196D50101900D929A95E1F737
:10018000CE0101960E948E0421E040E065E270E01D
:10019000CE0101960E94880495E0FE013196D601B9
:1001A00001900D929A95E1F7CE0101960E948E047E
:1001B000F4B815B80F900F900F900F900F90DF913B
:1001C000CF911F910F91FF90DF90CF90BF90AF9094
:1001D0000895EF92FF920F931F93CF93DF93EC015B
:1001E0007C0188E0E80EF11CE114F10461F08E015D
:1001F0000E5E1F4F0E151F0531F005501109C80185
:100200000E948E04F7CFCE0104960E945C05CE01B9
:10021000DF91CF911F910F91FF90EF900C945C05AF
:10022000EF92FF920F931F93CF93DF93EC01F62E83
:10023000E42E8C010C5F1F4FC8010E9484058130A1
:1002400061F078F0823089F460E0C8010E945D05B9
:100250006E2DC8010E94AF0508C060E0C8010E9471
:100260005D056E2DC8010E94C105CE010E94840566
:10027000813089F0A0F08230E1F460E0CE010E948C
:100280005D056F2DCE01DF91CF911F910F91FF90F2
:10029000EF900C94AF0560E0CE010E945D056F2DDC
:1002A000CE01DF91CF911F910F91FF90EF900C94B1
:1002B000C105DF91CF911F910F91FF90EF900895AD
:1002C000EF92FF920F931F93CF93DF93EC01F62EE3
:1002D000E42E8C010C5F1F4FC8010E948405813001
:1002E00061F078F0823089F460E0C8010E945D0519
:1002F0006E2DC8010E94AF0508C060E0C8010E94D1
:100300005D056E2DC8010E94C105CE010E948405C5
:10031000813089F0A0F08230E1F460E0CE010E94EB
:100320005D056F2DCE01DF91CF911F910F91FF9051
:10033000EF900C94AF0560E0CE010E945D056F2D3B
:10034000CE01DF91CF911F910F91FF90EF900C9410
:10035000C105DF91CF911F910F91FF90EF9008950C
:10036000CF93DF93EC0104960E948A05CE01DF91C2
:10037000CF910C948A050F931F93CF93DF93EC01D9
:100380008C010C5F1F4F61E0C8010E945D0560E0B9
:10039000CE010E945D0566E9C8010E94AF0566E9CD
:1003A000CE01DF91CF911F910F910C94AF050F9368
:1003B0001F93CF93DF93EC018C010C5F1F4F60E024
:1003C000C8010E945D0561E0CE010E945D0566E9FD
:1003D000C8010E94AF0566E9CE01DF91CF911F9160
:1003E0000F910C94AF05CF92DF92EF92FF920F9393
:1003F0001F93CF93DF937C01C0E0CC24C394D12C16
:10040000062F10E0D5E0F7018289C81700F54C2FC0
:1004100050E096010C2E02C0220F331F0A94E2F71F
:10042000202331230C2E02C0359527950A94E2F73C
:100430002130310551F4D49FC001D59F900D112476
:1004400008968E0D9F1D0E948F04CF5FDCCFDF9139
:10045000CF911F910F91FF90EF90DF90CF90089573
:10046000CF92DF92EF92FF920F931F93CF93DF9380
:100470007C01C0E0CC24C394D12C062F10E0D5E041
:10048000F7018289C81700F54C2F50E096010C2E19
:1004900002C0220F331F0A94E2F7202331230C2ECF
:1004A00002C0359527950A94E2F72130310551F4C1
:1004B000D49FC001D59F900D112408968E0D9F1DCD
:1004C0000E94E704CF5FDCCFDF91CF911F910F91A6
:1004D000FF90EF90DF90CF9008950F931F93CF93ED
:1004E000DF93CDB7DEB764970FB6F894DEBF0FBECB
:1004F000CDBF8C010E945D00C80144960E94110688
:10050000CE0101960E945D0084E1FE013196D80182
:1005100001900D928A95E1F7CE0101960E94E900C3
:10052000CE0101960E941106CE0101960E94060698
:1005300064960FB6F894DEBF0FBECDBFDF91CF91AA
:100540001F910F910895CF93DF93EC0144960E9481
:100550000606CE01DF91CF910C94E900CF93209154
:100560000A01211104C0C0910E01CC2309F1209190
:100570000A01222331F0C0910E01C11102C042E8EC
:1005800018C0C0910A01C11107C020910E01222399
:1005900019F044E662E80EC0C0910C01CC2361F072
:1005A000C0910A01CC2341F0C0910E01CC2321F06F
:1005B00044E664E60E9410018C2FCF910895CF93FA
:1005C000DF93EC010E94BB018AE397E00E943A05A9
:1005D000CE01DF91CF910C94B001CF93DF93EC016A
:1005E0000E94D7018AE397E00E943A05CE01DF918D
:1005F000CF910C94B0010F931F93CF93DF93EC0135
:100600000E94BB018E010C5E1F4FC8010E941306A1
:1006100080910E018823E1F3CE010E94B001C80150
:10062000DF91CF911F910F910C9415060F931F939B
:10063000CF93DF93EC010E94BB018E010C5E1F4F34
:10064000C8010E94130680910A018823E1F3CE01BC
:100650000E94B001C801DF91CF911F910F910C94BE
:10066000150608950895089508950895089510921F
:10067000C50083E38093C40088E18093C10086E0D5
:100680008093C20008950C9437031092C5006093C4
:10069000C40008958091C00085FFFCCF6093C60020
:1006A00008958091C00087FFFCCF8091C600089517
:1006B000CF93DF93EC0161E40E944A0364E5CE012D
:1006C0000E944A036DE0CE010E944A036AE0CE0117
:1006D0000E944A03CE010E94510391E0811101C0A2
:1006E00090E0892FDF91CF9108950F931F93CF93BF
:1006F000DF938C01EB016991662321F0C8010E9410
:100700004A03F9CFDF91CF911F910F9108950F9375
:100710001F93CF93DF93EC018B011092C5008CE007
:100720008093C40060E071E0CE010E947503B801BF
:10073000CE010E9475036DE0CE010E944A036AE07B
:10074000CE01DF91CF911F910F910C944A03CF926C
:10075000DF92EF92FF920F931F93CF93DF931F923D
:10076000CDB7DEB77C01062F6B011C2D101B1417B3
:1007700058F4C70149830E94510349818D3029F003
:10078000F60181936F01F1CF10E0812F0F90DF917F
:10079000CF911F910F91FF90EF90DF90CF90089530
:1007A0008091C00087FF03C08091C600F9CF0895F3
:1007B0000895FC016083418308950895FC018081C0
:1007C0000895FC0181810895FC0160830895FC0176
:1007D00061830895CF93DF93EC010E945D00CE0109
:1007E0004496DF91CF910C944303CF93DF9300D0D5
:1007F0001F92CDB7DEB78C01CE0101960E94D803BF
:10080000780124E1E20EF11CDD24D394C7010E949B
:100810005103682FCE0101960E94E403C7010E9494
:100820005103C7010E945103C7010E945103682F61
:10083000CE0101960E94E703C7010E945103C70140
:100840000E945103CE0101960E94DE038236A0F47D
:10085000803608F058C0843459F1853499F18230DB
:10086000A9F6CE0101960E94E10329E1829FC00111
:1008700011240E943A05CACF8436E9F1A0F48236E9
:1008800051F1833619F6CE0101960E94E103482FFB
:10089000CE0101964B830E94E103682F4B81C80172
:1008A0000E946001B3CF853651F18F3F61F1AECF29
:1008B000D5B8CE0101960E94E103682FC8010E94BD
:1008C000F301A4CFCE0101960E94E103682FC80175
:1008D0000E9430029BCFCE0101960E94E103482F77
:1008E000CE0101964B830E94E103682F4B81C80122
:1008F0000E9410018BCFC8010E94BB0187CFC801A5
:100900000E94D70183CFC8010E94B0017FCF089514
:10091000FC01718360834383248308950895FC015F
:1009200081E08283A081B1819C9121E030E0A90126
:10093000048002C0440F551F0A94E2F7842F80956B
:1009400089238C93A081B1818C91038002C0220FF6
:10095000331F0A94E2F7282B2C930895FC0182E0C0
:100960008283A081B1819C9121E030E0A9010380C4
:1009700002C0440F551F0A94E2F7842F8095892303
:100980008C93A081B1818C91048002C0220F331F0F
:100990000A94E2F7282B2C930895CF93DF93EC0170
:1009A00083E08A83CE010E94AE048FEC97E001972A
:1009B000F1F700C00000CE010E948F048FE697E19E
:1009C0000197F1F700C00000DF91CF910895FC017D
:1009D0001282A081B1818C9121E030E0A9010480D4
:1009E00002C0440F551F0A94E2F7038002C0220F91
:1009F000331F0A94E2F7242B209528232C93089583
:100A0000FC0182810895FC01808191810895FC019F
:100A100083810895FC0184810895FC01108208956A
:100A2000FC01108284B5826884BD85B5856085BD72
:100A300016BC67BDEEE6F0E0808182608083089599
:100A4000EEE6F0E080818D7F80830895FC01808157
:100A50000895FC016083089520E030E042E050E01A
:100A60002817390731F0FA013197F1F72F5F3F4F1F
:100A7000F7CF089520E030E040ED57E02817390720
:100A800031F0FA013197F1F72F5F3F4FF7CF08951B
:100A900008951092850010928400E0E8F0E08081D3
:100AA00081608083E1E8F0E080818D608083E2E80E
:100AB000F0E08081808308950895FC016083818146
:100AC000613031F4813011F45E9A08955F9A08958F
:100AD000813011F45E9808955F980895CF93DF9365
:100AE000EC016983662329F0613029F46A835E9AF8
:100AF00002C01A825F9A62E0CE010E945D05CE01BB
:100B0000DF91CF910C944905FC0180810895FC018F
:100B100081810895FC018281811104C0909180003F
:100B20009F7705C0813029F4909180009F7D90933C
:100B3000800082E080830895FC018281882319F07F
:100B4000813039F0089570E07093890060938800D7
:100B5000089570E070938B0060938A000895FC0103
:100B60008281811104C090918000906805C081301D
:100B700029F490918000906290938000CF010C94B2
:100B80009C050C949C051F920F920FB60F92112496
:100B90002F933F934F935F936F937F938F939F9385
:100BA000EF93FF9320E030E061E070E096B1A9019F
:100BB0004E5F5F4FFB01042E02C0EE0FFF1F0A9431
:100BC000E2F7892F90E08E239F2302C095958795A9
:100BD0004A95E2F741E0892B09F440E0F901E65F2C
:100BE000FE4F40832F5F3F4F25303105F9F6FF91CF
:100BF000EF919F918F917F916F915F914F913F9175
:100C00002F910F900FBE0F901F901895089587B1E8
:100C1000837087B9DA9AEDE6F0E080818C67808393
:100C200008950C940706DA9A0895DA980895CF93F8
:100C3000DF93CDB7DEB765970FB6F894DEBF0FBE72
:100C4000CDBFCE0101960E94EA03CE0101960E941B
:080C5000F503FFCFF894FFCF7C
:0A0C580041542B4E414D453D000074
:00000001FF
